{
  "contractName": "Token",
  "abi": [
    {
      "constant": true,
      "inputs": [],
      "name": "name",
      "outputs": [
        {
          "name": "",
          "type": "string"
        }
      ],
      "payable": false,
      "stateMutability": "view",
      "type": "function"
    },
    {
      "constant": false,
      "inputs": [
        {
          "name": "spender",
          "type": "address"
        },
        {
          "name": "tokens",
          "type": "uint256"
        }
      ],
      "name": "approve",
      "outputs": [
        {
          "name": "",
          "type": "bool"
        }
      ],
      "payable": false,
      "stateMutability": "nonpayable",
      "type": "function"
    },
    {
      "constant": true,
      "inputs": [],
      "name": "totalSupply",
      "outputs": [
        {
          "name": "",
          "type": "uint256"
        }
      ],
      "payable": false,
      "stateMutability": "view",
      "type": "function"
    },
    {
      "constant": true,
      "inputs": [],
      "name": "issuer",
      "outputs": [
        {
          "name": "",
          "type": "address"
        }
      ],
      "payable": false,
      "stateMutability": "view",
      "type": "function"
    },
    {
      "constant": true,
      "inputs": [
        {
          "name": "",
          "type": "address"
        }
      ],
      "name": "balances",
      "outputs": [
        {
          "name": "",
          "type": "bytes16"
        }
      ],
      "payable": false,
      "stateMutability": "view",
      "type": "function"
    },
    {
      "constant": true,
      "inputs": [],
      "name": "decimals",
      "outputs": [
        {
          "name": "",
          "type": "uint8"
        }
      ],
      "payable": false,
      "stateMutability": "view",
      "type": "function"
    },
    {
      "constant": true,
      "inputs": [
        {
          "name": "tokenOwner",
          "type": "address"
        }
      ],
      "name": "balanceOf",
      "outputs": [
        {
          "name": "",
          "type": "uint256"
        }
      ],
      "payable": false,
      "stateMutability": "view",
      "type": "function"
    },
    {
      "constant": false,
      "inputs": [],
      "name": "renounceOwnership",
      "outputs": [],
      "payable": false,
      "stateMutability": "nonpayable",
      "type": "function"
    },
    {
      "constant": true,
      "inputs": [],
      "name": "owner",
      "outputs": [
        {
          "name": "",
          "type": "address"
        }
      ],
      "payable": false,
      "stateMutability": "view",
      "type": "function"
    },
    {
      "constant": true,
      "inputs": [],
      "name": "isOwner",
      "outputs": [
        {
          "name": "",
          "type": "bool"
        }
      ],
      "payable": false,
      "stateMutability": "view",
      "type": "function"
    },
    {
      "constant": true,
      "inputs": [],
      "name": "symbol",
      "outputs": [
        {
          "name": "",
          "type": "string"
        }
      ],
      "payable": false,
      "stateMutability": "view",
      "type": "function"
    },
    {
      "constant": false,
      "inputs": [
        {
          "name": "receiver",
          "type": "address"
        },
        {
          "name": "tokens",
          "type": "uint256"
        }
      ],
      "name": "transfer",
      "outputs": [
        {
          "name": "",
          "type": "bool"
        }
      ],
      "payable": false,
      "stateMutability": "nonpayable",
      "type": "function"
    },
    {
      "constant": true,
      "inputs": [],
      "name": "product",
      "outputs": [
        {
          "name": "",
          "type": "bytes32"
        }
      ],
      "payable": false,
      "stateMutability": "view",
      "type": "function"
    },
    {
      "constant": true,
      "inputs": [
        {
          "name": "tokenOwner",
          "type": "address"
        },
        {
          "name": "spender",
          "type": "address"
        }
      ],
      "name": "allowance",
      "outputs": [
        {
          "name": "",
          "type": "uint256"
        }
      ],
      "payable": false,
      "stateMutability": "view",
      "type": "function"
    },
    {
      "constant": false,
      "inputs": [
        {
          "name": "newOwner",
          "type": "address"
        }
      ],
      "name": "transferOwnership",
      "outputs": [],
      "payable": false,
      "stateMutability": "nonpayable",
      "type": "function"
    },
    {
      "anonymous": false,
      "inputs": [
        {
          "indexed": true,
          "name": "previousOwner",
          "type": "address"
        },
        {
          "indexed": true,
          "name": "newOwner",
          "type": "address"
        }
      ],
      "name": "OwnershipTransferred",
      "type": "event"
    },
    {
      "anonymous": false,
      "inputs": [
        {
          "indexed": true,
          "name": "tokenOwner",
          "type": "address"
        },
        {
          "indexed": true,
          "name": "spender",
          "type": "address"
        },
        {
          "indexed": false,
          "name": "tokens",
          "type": "uint256"
        }
      ],
      "name": "Approval",
      "type": "event"
    },
    {
      "anonymous": false,
      "inputs": [
        {
          "indexed": true,
          "name": "from",
          "type": "address"
        },
        {
          "indexed": true,
          "name": "to",
          "type": "address"
        },
        {
          "indexed": false,
          "name": "tokens",
          "type": "uint256"
        }
      ],
      "name": "Transfer",
      "type": "event"
    },
    {
      "constant": false,
      "inputs": [
        {
          "name": "_name",
          "type": "string"
        },
        {
          "name": "_owner",
          "type": "address"
        },
        {
          "name": "_product",
          "type": "bytes32"
        },
        {
          "name": "_symbol",
          "type": "string"
        }
      ],
      "name": "initialize",
      "outputs": [],
      "payable": false,
      "stateMutability": "nonpayable",
      "type": "function"
    },
    {
      "constant": false,
      "inputs": [
        {
          "name": "sender",
          "type": "address"
        }
      ],
      "name": "initialize",
      "outputs": [],
      "payable": false,
      "stateMutability": "nonpayable",
      "type": "function"
    },
    {
      "constant": false,
      "inputs": [
        {
          "name": "amount",
          "type": "bytes16"
        }
      ],
      "name": "addTotalSupply",
      "outputs": [],
      "payable": false,
      "stateMutability": "nonpayable",
      "type": "function"
    },
    {
      "constant": false,
      "inputs": [
        {
          "name": "amount",
          "type": "bytes16"
        }
      ],
      "name": "reduceSupply",
      "outputs": [],
      "payable": false,
      "stateMutability": "nonpayable",
      "type": "function"
    },
    {
      "constant": false,
      "inputs": [
        {
          "name": "party",
          "type": "address"
        },
        {
          "name": "amount",
          "type": "bytes16"
        }
      ],
      "name": "addBalance",
      "outputs": [],
      "payable": false,
      "stateMutability": "nonpayable",
      "type": "function"
    },
    {
      "constant": false,
      "inputs": [
        {
          "name": "party",
          "type": "address"
        },
        {
          "name": "amount",
          "type": "bytes16"
        }
      ],
      "name": "reduceBalance",
      "outputs": [],
      "payable": false,
      "stateMutability": "nonpayable",
      "type": "function"
    },
    {
      "constant": false,
      "inputs": [
        {
          "name": "sender",
          "type": "address"
        },
        {
          "name": "receiver",
          "type": "address"
        },
        {
          "name": "tokens",
          "type": "uint256"
        }
      ],
      "name": "transferFrom",
      "outputs": [
        {
          "name": "",
          "type": "bool"
        }
      ],
      "payable": false,
      "stateMutability": "nonpayable",
      "type": "function"
    },
    {
      "constant": false,
      "inputs": [
        {
          "name": "sender",
          "type": "address"
        },
        {
          "name": "receiver",
          "type": "address"
        },
        {
          "name": "tokens",
          "type": "uint256"
        }
      ],
      "name": "transferToken",
      "outputs": [
        {
          "name": "",
          "type": "bool"
        }
      ],
      "payable": false,
      "stateMutability": "nonpayable",
      "type": "function"
    },
    {
      "constant": false,
      "inputs": [
        {
          "name": "receiver",
          "type": "address"
        },
        {
          "name": "tokens",
          "type": "uint256"
        }
      ],
      "name": "requestTransfer",
      "outputs": [
        {
          "name": "",
          "type": "bool"
        }
      ],
      "payable": false,
      "stateMutability": "nonpayable",
      "type": "function"
    }
  ],
  "bytecode": "0x6080604052611a7d806100136000396000f3fe608060405234801561001057600080fd5b50600436106101585760003560e01c80638da5cb5b116100c3578063bf9ce9521161007c578063bf9ce95214610564578063c4d66de81461056c578063dd62ed3e14610592578063f1672591146105c0578063f2fde38b146105e7578063f5537ede1461060d57610158565b80638da5cb5b146104be5780638f32d59b146104c657806395d89b41146104ce578063a49b8a4c146104d6578063a9059cbb1461050c578063aa5fc7941461053857610158565b806327e235e31161011557806327e235e3146102b7578063313ce567146102fa5780634c0992871461031857806370a082311461034e578063715018a6146103745780638c3760f31461037c57610158565b8063014153331461015d57806306fdde0314610186578063095ea7b31461020357806318160ddd146102435780631d1438481461025d57806323b872dd14610281575b600080fd5b6101846004803603602081101561017357600080fd5b50356001600160801b031916610643565b005b61018e610687565b6040805160208082528351818301528351919283929083019185019080838360005b838110156101c85781810151838201526020016101b0565b50505050905090810190601f1680156101f55780820380516001836020036101000a031916815260200191505b509250505060405180910390f35b61022f6004803603604081101561021957600080fd5b506001600160a01b038135169060200135610715565b604080519115158252519081900360200190f35b61024b61079d565b60408051918252519081900360200190f35b6102656107b5565b604080516001600160a01b039092168252519081900360200190f35b61022f6004803603606081101561029757600080fd5b506001600160a01b038135811691602081013590911690604001356107c4565b6102dd600480360360208110156102cd57600080fd5b50356001600160a01b0316610a58565b604080516001600160801b03199092168252519081900360200190f35b610302610a6d565b6040805160ff9092168252519081900360200190f35b6101846004803603604081101561032e57600080fd5b5080356001600160a01b031690602001356001600160801b031916610a7d565b61024b6004803603602081101561036457600080fd5b50356001600160a01b0316610af0565b610184610b1d565b6101846004803603608081101561039257600080fd5b8101906020810181356401000000008111156103ad57600080fd5b8201836020820111156103bf57600080fd5b803590602001918460018302840111640100000000831117156103e157600080fd5b91908080601f01602080910402602001604051908101604052809392919081815260200183838082843760009201919091525092956001600160a01b038535169560208601359591945092506060810191506040013564010000000081111561044957600080fd5b82018360208201111561045b57600080fd5b8035906020019184600183028401116401000000008311171561047d57600080fd5b91908080601f016020809104026020016040519081016040528093929190818152602001838380828437600092019190915250929550610bc3945050505050565b610265610ce1565b61022f610cf0565b61018e610d16565b610184600480360360408110156104ec57600080fd5b5080356001600160a01b031690602001356001600160801b031916610d71565b61022f6004803603604081101561052257600080fd5b506001600160a01b038135169060200135610dae565b61022f6004803603604081101561054e57600080fd5b506001600160a01b038135169060200135610ed9565b61024b610eec565b6101846004803603602081101561058257600080fd5b50356001600160a01b0316610ef2565b61024b600480360360408110156105a857600080fd5b506001600160a01b0381358116916020013516610fe7565b610184600480360360208110156105d657600080fd5b50356001600160801b03191661101b565b610184600480360360208110156105fd57600080fd5b50356001600160a01b0316611042565b61022f6004803603606081101561062357600080fd5b506001600160a01b038135811691602081013590911690604001356110aa565b606d546001600160a01b0316331461065a57600080fd5b60015461066a9060801b826111b8565b600180546001600160801b03191660809290921c91909117905550565b606a805460408051602060026001851615610100026000190190941693909304601f8101849004840282018401909252818152929183018282801561070d5780601f106106e25761010080835404028352916020019161070d565b820191906000526020600020905b8154815290600101906020018083116106f057829003601f168201915b505050505081565b6000610720826115bc565b3360008181526003602090815260408083206001600160a01b0389168085529083529281902080546001600160801b03191660809690961c959095179094558351868152935191937f8c5be1e5ebec7d5bd14f71427d1e84f3dd0314c0f7b2291e5b200ac8c7c3b925929081900390910190a35060015b92915050565b6001546000906107af9060801b611621565b90505b90565b6000546001600160a01b031681565b6001600160a01b0383166000908152600260205260408120546107f29060801b6107ed846115bc565b6116b9565b60000b6001148061082c57506001600160a01b0384166000908152600260205260409020546108279060801b6107ed846115bc565b60000b155b61083557600080fd5b606d54606c8054604080516020601f600260001960018716156101000201909516949094049384018190048102820181019092528281526001600160a01b03909416936389063c8b93909290918301828280156108d35780601f106108a8576101008083540402835291602001916108d3565b820191906000526020600020905b8154815290600101906020018083116108b657829003601f168201915b5050604051600160e31b6319f6a32502815260206004820181815286516024840152865173__stringutils___________________________9763cfb519289750955090935083926044019185019080838360005b83811015610940578181015183820152602001610928565b50505050905090810190601f16801561096d5780820380516001836020036101000a031916815260200191505b509250505060206040518083038186803b15801561098a57600080fd5b505af415801561099e573d6000803e3d6000fd5b505050506040513d60208110156109b457600080fd5b50516040805163ffffffff841660e01b815260048101929092523060248301526001600160a01b03808916604484015287166064830152608482018690525160a48083019260209291908290030181600087803b158015610a1457600080fd5b505af1158015610a28573d6000803e3d6000fd5b505050506040513d6020811015610a3e57600080fd5b505115610a4d57506001610a51565b5060005b9392505050565b60026020526000908152604090205460801b81565b600054600160a01b900460ff1681565b606d546001600160a01b03163314610a9457600080fd5b6001600160a01b038216600090815260026020526040902054610aba9060801b82611802565b6001600160a01b0392909216600090815260026020526040902080546001600160801b03191660809390931c9290921790915550565b6001600160a01b038116600090815260026020526040812054610b159060801b611621565b90505b919050565b610b25610cf0565b610b795760408051600160e51b62461bcd02815260206004820181905260248201527f4f776e61626c653a2063616c6c6572206973206e6f7420746865206f776e6572604482015290519081900360640190fd5b6037546040516000916001600160a01b0316907f8be0079c531659141344cd1fd0a4f28419497f9722a3daafe3b4186f6b6457e0908390a3603780546001600160a01b0319169055565b600454610100900460ff1680610bdc5750610bdc611814565b80610bea575060045460ff16155b610c2857604051600160e51b62461bcd02815260040180806020018281038252602e815260200180611a24602e913960400191505060405180910390fd5b600454610100900460ff16158015610c53576004805460ff1961ff0019909116610100171660011790555b610c5c84610ef2565b606d80546001600160a01b0319166001600160a01b0386161790558451610c8a90606a906020880190611965565b508151610c9e90606c906020850190611965565b50606b8390556000805474ff00000000000000000000000000000000000000001916600160a11b1790558015610cda576004805461ff00191690555b5050505050565b6037546001600160a01b031690565b6037546000906001600160a01b0316610d0761181a565b6001600160a01b031614905090565b606c805460408051602060026001851615610100026000190190941693909304601f8101849004840282018401909252818152929183018282801561070d5780601f106106e25761010080835404028352916020019161070d565b606d546001600160a01b03163314610d8857600080fd5b6001600160a01b038216600090815260026020526040902054610aba9060801b826111b8565b6000610dd4610dbc836115bc565b3060009081526002602052604090205460801b6116b9565b60000b6000191480610df25750610ded610dbc836115bc565b60000b155b610dfb57600080fd5b30600090815260026020526040902054610e209060801b610e1b846115bc565b611802565b3060009081526002602052604080822080546001600160801b031916608094851c1790556001600160a01b0386168252902054610e66911b610e61846115bc565b6111b8565b6001600160a01b03841660008181526002602090815260409182902080546001600160801b03191660809590951c9490941790935580518581529051919230927fddf252ad1be2c89b69c2b068fc378daa952ba7f163c4a11628f55a4df523b3ef9281900390910190a350600192915050565b6000610ee58383610dae565b5092915050565b606b5481565b600454610100900460ff1680610f0b5750610f0b611814565b80610f19575060045460ff16155b610f5757604051600160e51b62461bcd02815260040180806020018281038252602e815260200180611a24602e913960400191505060405180910390fd5b600454610100900460ff16158015610f82576004805460ff1961ff0019909116610100171660011790555b603780546001600160a01b0319166001600160a01b0384811691909117918290556040519116906000907f8be0079c531659141344cd1fd0a4f28419497f9722a3daafe3b4186f6b6457e0908290a38015610fe3576004805461ff00191690555b5050565b6001600160a01b038083166000908152600360209081526040808320938516835292905290812054610a519060801b611621565b606d546001600160a01b0316331461103257600080fd5b60015461066a9060801b82611802565b61104a610cf0565b61109e5760408051600160e51b62461bcd02815260206004820181905260248201527f4f776e61626c653a2063616c6c6572206973206e6f7420746865206f776e6572604482015290519081900360640190fd5b6110a78161181e565b50565b606d546000906001600160a01b031633146110c457600080fd5b6110f16110d0836115bc565b6001600160a01b03861660009081526002602052604090205460801b6116b9565b60000b600019148061110f575061110a6110d0836115bc565b60000b155b15610a4d576001600160a01b03841660009081526002602052604090205461113d9060801b610e1b846115bc565b6001600160a01b0385811660009081526002602052604080822080546001600160801b031916608095861c17905591861681522054611180911b610e61846115bc565b6001600160a01b038416600090815260026020526040902080546001600160801b03191660809290921c919091179055506001610a51565b6000617fff6001600160801b03608085811c8216607090811c8416939186901c90921690911c81169082141561122e5780617fff1415611224576001600160801b03198581169085161415611211578492505050610797565b50600160ef1b61ffff0291506107979050565b8492505050610797565b80617fff1415611242578392505050610797565b6001607f1b608086901c6001600160801b0381169190911015906001600160701b031683611273576001935061127a565b600160701b175b6001607f1b608087901c6001600160801b0381169190911015906001600160701b0316846112ab57600194506112b2565b600160701b175b826112e2576001600160801b03198816600160ff1b146112d257876112d5565b60005b9650505050505050610797565b80611302576001600160801b03198916600160ff1b146112d257886112d5565b84860384151583151514156114105760708113156113295789975050505050505050610797565b600081131561133b5790811c9061136a565b606f198112156113545788975050505050505050610797565b600081121561136a578060000384901c93508596505b92810192600160711b8410611385576001968701969390931c925b86617fff14156113ba57846113a257600160f01b617fff026113ac565b6001600160f01b03195b975050505050505050610797565b600160701b8410156113cf57600096506113dc565b6001600160701b03841693505b83607088901b866113ee5760006113f4565b6001607f1b5b6001600160801b0316171760801b975050505050505050610797565b600081131561142b57600184901b9350600187039650611442565b600081121561144257600182901b91506001860396505b607081131561145457600191506114a1565b6001811315611471576001810360018303901c60010191506114a1565b606f1981121561148457600193506114a1565b6000198112156114a1576001816000030360018503901c60010193505b8184106114b25781840393506114bb565b83820393508294505b836114d157506000965061079795505050505050565b60006114dc856118c2565b9050806071141561150257600185901c6001600160701b03169450600188019750611551565b607081101561154457607081900380891115611531578086901b6001600160701b03169550808903985061153e565b600098600019019590951b945b50611551565b6001600160701b03851694505b87617fff1415611587578561156e57600160f01b617fff02611578565b6001600160f01b03195b98505050505050505050610797565b84607089901b8761159957600061159f565b6001607f1b5b6001600160801b0316171760801b98505050505050505050610797565b6000816115cb57506000610b18565b8160006115d7826118c2565b905060708110156115f0578060700382901b9150611603565b6070811115611603576070810382901c91505b613fff0160701b6001600160701b03919091161760801b9050610b18565b6000617fff6001600160801b03608084901c1660701c16613fff81101561164c576000915050610b18565b6001607f1b8360801c6001600160801b03161061166857600080fd5b6140fe81111561167757600080fd5b600160701b6001600160701b03608085901c161761406f8210156116a15761406f8290031c610a51565b61406f821115610a515761406e1982011b9392505050565b600060016001607f1b03608084901c16600160701b617fff028111156116de57600080fd5b60016001607f1b03608084901c16600160701b617fff0281111561170157600080fd5b6001600160801b031985811690851614158061172d5750600160701b617fff02826001600160801b0316105b61173657600080fd5b6001600160801b0319858116908516141561175657600092505050610797565b60006001607f1b8660801c6001600160801b03161015905060006001607f1b8660801c6001600160801b03161015905081156117c15780156117b257826001600160801b0316846001600160801b0316116117b25760016117b6565b6000195b945050505050610797565b80156117d4576001945050505050610797565b826001600160801b0316846001600160801b0316116117f5576000196117b6565b6001945050505050610797565b6000610a5183600160ff1b84186111b8565b303b1590565b3390565b6001600160a01b03811661186657604051600160e51b62461bcd0281526004018080602001828103825260268152602001806119fe6026913960400191505060405180910390fd5b6037546040516001600160a01b038084169216907f8be0079c531659141344cd1fd0a4f28419497f9722a3daafe3b4186f6b6457e090600090a3603780546001600160a01b0319166001600160a01b0392909216919091179055565b60008082116118d057600080fd5b6000600160801b83106118e557608092831c92015b6801000000000000000083106118fd57604092831c92015b640100000000831061191157602092831c92015b62010000831061192357601092831c92015b610100831061193457600892831c92015b6010831061194457600492831c92015b6004831061195457600292831c92015b60028310610b155760010192915050565b828054600181600116156101000203166002900490600052602060002090601f016020900481019282601f106119a657805160ff19168380011785556119d3565b828001600101855582156119d3579182015b828111156119d35782518255916020019190600101906119b8565b506119df9291506119e3565b5090565b6107b291905b808211156119df57600081556001016119e956fe4f776e61626c653a206e6577206f776e657220697320746865207a65726f2061646472657373436f6e747261637420696e7374616e63652068617320616c7265616479206265656e20696e697469616c697a6564a165627a7a72305820a6577f77353dc665a87e63b47f340af9b659516c7bf962f1eb773423a2f334060029",
  "source": "// (c) Kallol Borah, 2020\n// Implements token issued by Bond issuer. Can be reused by any financial product issuer\n\npragma solidity >=0.5.0 <0.7.0;\n\nimport \"./erc/ERC20.sol\";\nimport \"./ViaBond.sol\";\nimport \"./ViaToken.sol\";\nimport \"@openzeppelin/upgrades/contracts/Initializable.sol\";\nimport \"@openzeppelin/contracts-ethereum-package/contracts/ownership/Ownable.sol\";\nimport \"./abdk-libraries-solidity/ABDKMathQuad.sol\";\nimport \"./utilities/StringUtils.sol\";\n\ncontract Token is ViaToken, ERC20, Initializable, Ownable {\n\n    using stringutils for *;\n\n    //Via token attributes (eg, name : Via-USD, product : ViaBond, symbol : bond identifier)\n    string public name;\n    bytes32 public product;\n    string public symbol;\n    address payable issuer;\n\n    //initiliaze proxies\n    function initialize(string memory _name, address payable _owner, bytes32 _product, string memory _symbol) public initializer{\n        Ownable.initialize(_owner);\n        issuer = _owner;\n        name = _name;\n        symbol = _symbol;\n        product = _product;\n        decimals = 2;\n    }\n\n    function addTotalSupply(bytes16 amount) external{\n        require(issuer==msg.sender);\n        //adjust total supply\n        totalSupply_ = ABDKMathQuad.add(totalSupply_, amount);\n    }\n\n    function reduceSupply(bytes16 amount) external{        \n        require(issuer==msg.sender);\n        totalSupply_ = ABDKMathQuad.sub(totalSupply_, amount);\n    }\n\n    function addBalance(address party, bytes16 amount) external{\n        require(issuer==msg.sender);\n        //add via to this contract's balance first (ie issue them first)\n        balances[party] = ABDKMathQuad.add(balances[party], amount);\n    }\n\n    function reduceBalance(address party, bytes16 amount) external{\n        require(issuer==msg.sender);\n        balances[party] = ABDKMathQuad.sub(balances[party], amount);\n    }\n\n    function transferFrom(address sender, address receiver, uint256 tokens) public returns (bool){\n        //ensure sender has enough tokens in balance before transferring or redeeming them\n        require(ABDKMathQuad.cmp(balances[sender],ABDKMathQuad.fromUInt(tokens))==1 ||\n                ABDKMathQuad.cmp(balances[sender],ABDKMathQuad.fromUInt(tokens))==0);\n        if(ViaBond(issuer).transferFoward(symbol.stringToBytes32(), address(this), sender, receiver, tokens))\n            return true;\n        else\n            return false;\n    }\n\n    function transferToken(address sender, address receiver, uint256 tokens) external returns (bool){\n        require(issuer==msg.sender);\n        //owner should have more tokens than being transferred\n        if(ABDKMathQuad.cmp(ABDKMathQuad.fromUInt(tokens), balances[sender])==-1 || ABDKMathQuad.cmp(ABDKMathQuad.fromUInt(tokens), balances[sender])==0){\n            //sending contract should be allowed by token owner to make this transfer\n            //require(ABDKMathQuad.cmp(ABDKMathQuad.fromUInt(tokens), allowed[sender][msg.sender])==-1 || ABDKMathQuad.cmp(ABDKMathQuad.fromUInt(tokens), allowed[sender][msg.sender])==0);\n            balances[sender] = ABDKMathQuad.sub(balances[sender], ABDKMathQuad.fromUInt(tokens));\n            //allowed[sender][msg.sender] = ABDKMathQuad.sub(allowed[sender][msg.sender], ABDKMathQuad.fromUInt(tokens));\n            balances[receiver] = ABDKMathQuad.add(balances[receiver], ABDKMathQuad.fromUInt(tokens));\n            return true;\n        }\n        return false;\n    }   \n\n\n    function requestTransfer(address receiver, uint tokens) external returns (bool){\n        transfer(receiver, tokens);\n    }    \n\n}",
  "sourcePath": "/media/solidity/DATA/Code/via-issuer/contracts/Token.sol",
  "compiler": {
    "name": "solc",
    "version": "0.5.7+commit.6da8b019.Emscripten.clang"
  },
  "schemaVersion": "3.3.1",
  "updatedAt": "2020-11-07T23:36:43.271Z",
  "devdoc": {
    "methods": {
      "initialize(address)": {
        "details": "Initializes the contract setting the deployer as the initial owner."
      },
      "isOwner()": {
        "details": "Returns true if the caller is the current owner."
      },
      "owner()": {
        "details": "Returns the address of the current owner."
      },
      "renounceOwnership()": {
        "details": "Leaves the contract without owner. It will not be possible to call `onlyOwner` functions anymore. Can only be called by the current owner.     * > Note: Renouncing ownership will leave the contract without an owner, thereby removing any functionality that is only available to the owner."
      },
      "transferOwnership(address)": {
        "details": "Transfers ownership of the contract to a new account (`newOwner`). Can only be called by the current owner."
      }
    }
  },
  "userdoc": {
    "methods": {}
  }
}